{
  "_format": "hh-sol-artifact-1",
  "contractName": "AISwapExecutorReactive",
  "sourceName": "contracts/AISwapExecutorReactive.sol",
  "abi": [
    {
      "inputs": [
        {
          "internalType": "address",
          "name": "_swapRouter",
          "type": "address"
        },
        {
          "internalType": "address",
          "name": "_quoter",
          "type": "address"
        }
      ],
      "stateMutability": "nonpayable",
      "type": "constructor"
    },
    {
      "anonymous": false,
      "inputs": [
        {
          "indexed": true,
          "internalType": "address",
          "name": "previousOwner",
          "type": "address"
        },
        {
          "indexed": true,
          "internalType": "address",
          "name": "newOwner",
          "type": "address"
        }
      ],
      "name": "OwnershipTransferred",
      "type": "event"
    },
    {
      "anonymous": false,
      "inputs": [
        {
          "indexed": true,
          "internalType": "bytes32",
          "name": "id",
          "type": "bytes32"
        },
        {
          "indexed": true,
          "internalType": "address",
          "name": "user",
          "type": "address"
        },
        {
          "indexed": true,
          "internalType": "address",
          "name": "tokenIn",
          "type": "address"
        },
        {
          "indexed": false,
          "internalType": "address",
          "name": "tokenOut",
          "type": "address"
        },
        {
          "indexed": false,
          "internalType": "uint24",
          "name": "fee",
          "type": "uint24"
        },
        {
          "indexed": false,
          "internalType": "uint256",
          "name": "thresholdPrice",
          "type": "uint256"
        },
        {
          "indexed": false,
          "internalType": "bool",
          "name": "isAbove",
          "type": "bool"
        }
      ],
      "name": "PriceThresholdSet",
      "type": "event"
    },
    {
      "anonymous": false,
      "inputs": [
        {
          "indexed": true,
          "internalType": "bytes32",
          "name": "id",
          "type": "bytes32"
        },
        {
          "indexed": false,
          "internalType": "uint256",
          "name": "currentPrice",
          "type": "uint256"
        },
        {
          "indexed": false,
          "internalType": "uint256",
          "name": "thresholdPrice",
          "type": "uint256"
        }
      ],
      "name": "PriceThresholdTriggered",
      "type": "event"
    },
    {
      "anonymous": false,
      "inputs": [
        {
          "indexed": true,
          "internalType": "address",
          "name": "user",
          "type": "address"
        },
        {
          "indexed": true,
          "internalType": "address",
          "name": "token",
          "type": "address"
        },
        {
          "indexed": false,
          "internalType": "uint256",
          "name": "amount",
          "type": "uint256"
        }
      ],
      "name": "TokenDeposited",
      "type": "event"
    },
    {
      "anonymous": false,
      "inputs": [
        {
          "indexed": true,
          "internalType": "address",
          "name": "user",
          "type": "address"
        },
        {
          "indexed": true,
          "internalType": "address",
          "name": "token",
          "type": "address"
        },
        {
          "indexed": false,
          "internalType": "uint256",
          "name": "amount",
          "type": "uint256"
        }
      ],
      "name": "TokenWithdrawn",
      "type": "event"
    },
    {
      "anonymous": false,
      "inputs": [
        {
          "indexed": true,
          "internalType": "address",
          "name": "user",
          "type": "address"
        },
        {
          "indexed": true,
          "internalType": "address",
          "name": "tokenIn",
          "type": "address"
        },
        {
          "indexed": true,
          "internalType": "address",
          "name": "tokenOut",
          "type": "address"
        },
        {
          "indexed": false,
          "internalType": "uint256",
          "name": "amountIn",
          "type": "uint256"
        },
        {
          "indexed": false,
          "internalType": "uint256",
          "name": "amountOut",
          "type": "uint256"
        },
        {
          "indexed": false,
          "internalType": "address",
          "name": "executor",
          "type": "address"
        }
      ],
      "name": "TradeExecuted",
      "type": "event"
    },
    {
      "anonymous": false,
      "inputs": [
        {
          "indexed": true,
          "internalType": "address",
          "name": "user",
          "type": "address"
        }
      ],
      "name": "UserRegistered",
      "type": "event"
    },
    {
      "inputs": [
        {
          "internalType": "address",
          "name": "",
          "type": "address"
        }
      ],
      "name": "aiAgents",
      "outputs": [
        {
          "internalType": "bool",
          "name": "",
          "type": "bool"
        }
      ],
      "stateMutability": "view",
      "type": "function"
    },
    {
      "inputs": [
        {
          "internalType": "bytes32",
          "name": "thresholdId",
          "type": "bytes32"
        }
      ],
      "name": "cancelPriceThreshold",
      "outputs": [],
      "stateMutability": "nonpayable",
      "type": "function"
    },
    {
      "inputs": [
        {
          "internalType": "address",
          "name": "token",
          "type": "address"
        },
        {
          "internalType": "uint256",
          "name": "amount",
          "type": "uint256"
        }
      ],
      "name": "depositTokens",
      "outputs": [],
      "stateMutability": "nonpayable",
      "type": "function"
    },
    {
      "inputs": [
        {
          "internalType": "address",
          "name": "user",
          "type": "address"
        },
        {
          "internalType": "bytes",
          "name": "path",
          "type": "bytes"
        },
        {
          "internalType": "uint256",
          "name": "amountIn",
          "type": "uint256"
        },
        {
          "internalType": "uint256",
          "name": "amountOutMinimum",
          "type": "uint256"
        },
        {
          "internalType": "uint256",
          "name": "deadline",
          "type": "uint256"
        }
      ],
      "name": "executeMultiHopSwap",
      "outputs": [
        {
          "internalType": "uint256",
          "name": "amountOut",
          "type": "uint256"
        }
      ],
      "stateMutability": "nonpayable",
      "type": "function"
    },
    {
      "inputs": [
        {
          "internalType": "address",
          "name": "user",
          "type": "address"
        },
        {
          "components": [
            {
              "internalType": "address",
              "name": "tokenIn",
              "type": "address"
            },
            {
              "internalType": "address",
              "name": "tokenOut",
              "type": "address"
            },
            {
              "internalType": "uint24",
              "name": "fee",
              "type": "uint24"
            },
            {
              "internalType": "uint256",
              "name": "amountIn",
              "type": "uint256"
            },
            {
              "internalType": "uint256",
              "name": "amountOutMinimum",
              "type": "uint256"
            },
            {
              "internalType": "uint256",
              "name": "deadline",
              "type": "uint256"
            }
          ],
          "internalType": "struct AISwapExecutorReactive.TradeParams",
          "name": "params",
          "type": "tuple"
        }
      ],
      "name": "executeSwap",
      "outputs": [
        {
          "internalType": "uint256",
          "name": "amountOut",
          "type": "uint256"
        }
      ],
      "stateMutability": "nonpayable",
      "type": "function"
    },
    {
      "inputs": [
        {
          "internalType": "address",
          "name": "user",
          "type": "address"
        },
        {
          "internalType": "address",
          "name": "token",
          "type": "address"
        }
      ],
      "name": "getUserBalance",
      "outputs": [
        {
          "internalType": "uint256",
          "name": "",
          "type": "uint256"
        }
      ],
      "stateMutability": "view",
      "type": "function"
    },
    {
      "inputs": [],
      "name": "owner",
      "outputs": [
        {
          "internalType": "address",
          "name": "",
          "type": "address"
        }
      ],
      "stateMutability": "view",
      "type": "function"
    },
    {
      "inputs": [
        {
          "internalType": "bytes32",
          "name": "",
          "type": "bytes32"
        }
      ],
      "name": "priceThresholds",
      "outputs": [
        {
          "internalType": "address",
          "name": "user",
          "type": "address"
        },
        {
          "internalType": "address",
          "name": "tokenIn",
          "type": "address"
        },
        {
          "internalType": "address",
          "name": "tokenOut",
          "type": "address"
        },
        {
          "internalType": "uint24",
          "name": "fee",
          "type": "uint24"
        },
        {
          "internalType": "uint256",
          "name": "thresholdPrice",
          "type": "uint256"
        },
        {
          "internalType": "bool",
          "name": "isAbove",
          "type": "bool"
        },
        {
          "internalType": "bool",
          "name": "isActive",
          "type": "bool"
        }
      ],
      "stateMutability": "view",
      "type": "function"
    },
    {
      "inputs": [],
      "name": "quoter",
      "outputs": [
        {
          "internalType": "address",
          "name": "",
          "type": "address"
        }
      ],
      "stateMutability": "view",
      "type": "function"
    },
    {
      "inputs": [
        {
          "internalType": "bytes",
          "name": "logData",
          "type": "bytes"
        }
      ],
      "name": "react",
      "outputs": [],
      "stateMutability": "nonpayable",
      "type": "function"
    },
    {
      "inputs": [
        {
          "internalType": "address",
          "name": "token",
          "type": "address"
        },
        {
          "internalType": "uint256",
          "name": "amount",
          "type": "uint256"
        }
      ],
      "name": "recoverTokens",
      "outputs": [],
      "stateMutability": "nonpayable",
      "type": "function"
    },
    {
      "inputs": [],
      "name": "registerUser",
      "outputs": [],
      "stateMutability": "nonpayable",
      "type": "function"
    },
    {
      "inputs": [],
      "name": "renounceOwnership",
      "outputs": [],
      "stateMutability": "nonpayable",
      "type": "function"
    },
    {
      "inputs": [
        {
          "internalType": "address",
          "name": "agent",
          "type": "address"
        },
        {
          "internalType": "bool",
          "name": "approved",
          "type": "bool"
        }
      ],
      "name": "setAIAgent",
      "outputs": [],
      "stateMutability": "nonpayable",
      "type": "function"
    },
    {
      "inputs": [
        {
          "internalType": "address",
          "name": "tokenIn",
          "type": "address"
        },
        {
          "internalType": "address",
          "name": "tokenOut",
          "type": "address"
        },
        {
          "internalType": "uint24",
          "name": "fee",
          "type": "uint24"
        },
        {
          "internalType": "uint256",
          "name": "thresholdPrice",
          "type": "uint256"
        },
        {
          "internalType": "bool",
          "name": "isAbove",
          "type": "bool"
        }
      ],
      "name": "setPriceThreshold",
      "outputs": [
        {
          "internalType": "bytes32",
          "name": "thresholdId",
          "type": "bytes32"
        }
      ],
      "stateMutability": "nonpayable",
      "type": "function"
    },
    {
      "inputs": [],
      "name": "swapRouter",
      "outputs": [
        {
          "internalType": "address",
          "name": "",
          "type": "address"
        }
      ],
      "stateMutability": "view",
      "type": "function"
    },
    {
      "inputs": [
        {
          "internalType": "address",
          "name": "newOwner",
          "type": "address"
        }
      ],
      "name": "transferOwnership",
      "outputs": [],
      "stateMutability": "nonpayable",
      "type": "function"
    },
    {
      "inputs": [
        {
          "internalType": "address",
          "name": "",
          "type": "address"
        }
      ],
      "name": "userData",
      "outputs": [
        {
          "internalType": "bool",
          "name": "isRegistered",
          "type": "bool"
        }
      ],
      "stateMutability": "view",
      "type": "function"
    },
    {
      "inputs": [
        {
          "internalType": "address",
          "name": "token",
          "type": "address"
        },
        {
          "internalType": "uint256",
          "name": "amount",
          "type": "uint256"
        }
      ],
      "name": "withdrawTokens",
      "outputs": [],
      "stateMutability": "nonpayable",
      "type": "function"
    }
  ],
  "bytecode": "0x60c06040523480156200001157600080fd5b5060405162001f0538038062001f058339810160408190526200003491620000c4565b6200003f3362000057565b6001600160a01b039182166080521660a052620000fc565b600080546001600160a01b038381166001600160a01b0319831681178455604051919092169283917f8be0079c531659141344cd1fd0a4f28419497f9722a3daafe3b4186f6b6457e09190a35050565b80516001600160a01b0381168114620000bf57600080fd5b919050565b60008060408385031215620000d857600080fd5b620000e383620000a7565b9150620000f360208401620000a7565b90509250929050565b60805160a051611db2620001536000396000610358015260008181610331015281816108050152818161083d0152818161096e01528181610c6901528181610c9501528181610d3b0152610fb30152611db26000f3fe608060405234801561001057600080fd5b50600436106101215760003560e01c8063715018a6116100ad578063c31c9c0711610071578063c31c9c071461032c578063c6bbd5a714610353578063c89109131461037a578063f084e9ac1461039d578063f2fde38b146103b057600080fd5b8063715018a61461020557806377bad62e1461020d57806380cc81b3146102405780638da5cb5b146102f4578063a1c207981461031957600080fd5b80632ae804cf116100f45780632ae804cf146101875780632d8ce10e1461019a5780634d3820eb146101ad57806366168bd7146101b55780636805d6ad146101c857600080fd5b806305339ba514610126578063069c9fae1461013b57806306b091f91461014e5780632725df1f14610161575b600080fd5b610139610134366004611954565b6103c3565b005b6101396101493660046119b2565b6104b7565b61013961015c3660046119b2565b6104df565b61017461016f3660046119dc565b610610565b6040519081526020015b60405180910390f35b610174610195366004611a1b565b610ac4565b6101396101a8366004611a96565b610e61565b610139610e94565b6101396101c33660046119b2565b610f36565b6101746101d6366004611acd565b6001600160a01b0391821660009081526002602090815260408083209390941682526001909201909152205490565b610139611015565b61023061021b366004611b00565b60016020526000908152604090205460ff1681565b604051901515815260200161017e565b6102a761024e366004611b1b565b6003602081905260009182526040909120805460018201546002830154938301546004909301546001600160a01b03928316949183169392821692600160a01b90920462ffffff16919060ff8082169161010090041687565b604080516001600160a01b0398891681529688166020880152969094169585019590955262ffffff9091166060840152608083015291151560a082015290151560c082015260e00161017e565b6000546001600160a01b03165b6040516001600160a01b03909116815260200161017e565b610174610327366004611b47565b611029565b6103017f000000000000000000000000000000000000000000000000000000000000000081565b6103017f000000000000000000000000000000000000000000000000000000000000000081565b610230610388366004611b00565b60026020526000908152604090205460ff1681565b6101396103ab366004611b1b565b611309565b6101396103be366004611b00565b611411565b6000806103d283850185611ba9565b6000828152600360205260409020600481015492945090925090610100900460ff166103ff575050505050565b600481015460009060ff1661041b578160030154831115610424565b81600301548310155b905080156104af57837f2d9f1142a96359e7cbc59f57574f6c2c415e76a0b7c9a3d0e16c8a3f93faa4e384846003015460405161046b929190918252602082015260400190565b60405180910390a260048201805461ff001916905581546001600160a01b0316600090815260026020818152604080842088855290920190529020805460ff191690555b505050505050565b6104bf61148a565b6104db826104d56000546001600160a01b031690565b836114e4565b5050565b3360009081526002602052604090205460ff166105175760405162461bcd60e51b815260040161050e90611bcb565b60405180910390fd5b3360009081526002602090815260408083206001600160a01b03861684526001019091529020548111156105845760405162461bcd60e51b8152602060048201526014602482015273496e73756666696369656e742062616c616e636560601b604482015260640161050e565b3360009081526002602090815260408083206001600160a01b0386168452600101909152812080548392906105ba908490611c0e565b909155506105cb90508233836114e4565b6040518181526001600160a01b0383169033907f8210728e7c071f615b840ee026032693858fbcd5e5359e67e438c890f59e5620906020015b60405180910390a35050565b3360009081526001602052604081205460ff1661066b5760405162461bcd60e51b81526020600482015260196024820152784f6e6c7920617574686f72697a6564204149206167656e747360381b604482015260640161050e565b6001600160a01b03831660009081526002602052604090205460ff166106a35760405162461bcd60e51b815260040161050e90611bcb565b8160a001354211156106ed5760405162461bcd60e51b8152602060048201526013602482015272151c985b9cd858dd1a5bdb88195e1c1a5c9959606a1b604482015260640161050e565b6001600160a01b0383166000908152600260209081526040822060010190829061071990860186611b00565b6001600160a01b03166001600160a01b03168152602001908152602001600020549050826060013581101561078c5760405162461bcd60e51b8152602060048201526019602482015278496e73756666696369656e7420757365722062616c616e636560381b604482015260640161050e565b6001600160a01b038416600090815260026020908152604082206060860135926001909101916107be90870187611b00565b6001600160a01b03166001600160a01b0316815260200190815260200160002060008282546107ed9190611c0e565b9091555061082b90506108036020850185611b00565b7f000000000000000000000000000000000000000000000000000000000000000060006115e4565b61086661083b6020850185611b00565b7f000000000000000000000000000000000000000000000000000000000000000085606001356115e4565b604080516101008101909152600090806108836020870187611b00565b6001600160a01b031681526020018560200160208101906108a49190611b00565b6001600160a01b031681526020016108c26060870160408801611c21565b62ffffff90811682523060208084019190915260a0808901356040808601919091526060808b0135818701526080808c013581880152600096840196909652815163414bf38960e01b815287516001600160a01b039081166004830152948801518516602482015291870151909416604482015292850151821660648401529284015160848301529183015160a482015260c083015160c482015260e0830151821660e48201529192507f0000000000000000000000000000000000000000000000000000000000000000169063414bf38990610104016020604051808303816000875af11580156109b8573d6000803e3d6000fd5b505050506040513d601f19601f820116820180604052508101906109dc9190611c3c565b6001600160a01b038616600090815260026020908152604080832093965086936001019291610a0f918901908901611b00565b6001600160a01b03166001600160a01b031681526020019081526020016000206000828254610a3e9190611c55565b90915550610a5490506040850160208601611b00565b6001600160a01b0316610a6a6020860186611b00565b60408051606088810135825260208201889052338284015291516001600160a01b03938416938a16927f2d73a50b7e56ed73f508ba9e7092b9b1ca104f46403d6af8db3416cacc3677c5928290030190a450505b92915050565b3360009081526001602052604081205460ff16610b1f5760405162461bcd60e51b81526020600482015260196024820152784f6e6c7920617574686f72697a6564204149206167656e747360381b604482015260640161050e565b6001600160a01b03871660009081526002602052604090205460ff16610b575760405162461bcd60e51b815260040161050e90611bcb565b81421115610b9d5760405162461bcd60e51b8152602060048201526013602482015272151c985b9cd858dd1a5bdb88195e1c1a5c9959606a1b604482015260640161050e565b6000610ba987876116dd565b6001600160a01b03808a166000908152600260209081526040808320938516835260019093019052205490915085811015610c225760405162461bcd60e51b8152602060048201526019602482015278496e73756666696369656e7420757365722062616c616e636560381b604482015260640161050e565b6001600160a01b03808a1660009081526002602090815260408083209386168352600190930190529081208054889290610c5d908490611c0e565b90915550610c8f9050827f000000000000000000000000000000000000000000000000000000000000000060006115e4565b610cba827f0000000000000000000000000000000000000000000000000000000000000000886115e4565b6000610cc68989611744565b905060006040518060a001604052808b8b8080601f0160208091040260200160405190810160405280939291908181526020018383808284376000920191909152505050908252503060208201526040808201899052606082018b905260809091018990525163c04b8d5960e01b81529091507f00000000000000000000000000000000000000000000000000000000000000006001600160a01b03169063c04b8d5990610d78908490600401611c8c565b6020604051808303816000875af1158015610d97573d6000803e3d6000fd5b505050506040513d601f19601f82011682018060405250810190610dbb9190611c3c565b6001600160a01b03808d16600090815260026020908152604080832093871683526001909301905290812080549297508792909190610dfb908490611c55565b90915550506040805189815260208101879052338183015290516001600160a01b038481169287821692918f16917f2d73a50b7e56ed73f508ba9e7092b9b1ca104f46403d6af8db3416cacc3677c59181900360600190a4505050509695505050505050565b610e6961148a565b6001600160a01b03919091166000908152600160205260409020805460ff1916911515919091179055565b3360009081526002602052604090205460ff1615610ef45760405162461bcd60e51b815260206004820152601760248201527f5573657220616c72656164792072656769737465726564000000000000000000604482015260640161050e565b33600081815260026020526040808220805460ff19166001179055517f54db7a5cb4735e1aac1f53db512d3390390bb6637bd30ad4bf9fc98667d9b9b99190a2565b3360009081526002602052604090205460ff16610f655760405162461bcd60e51b815260040161050e90611bcb565b610f71823330846117b9565b3360009081526002602090815260408083206001600160a01b038616845260010190915281208054839290610fa7908490611c55565b90915550610fd89050827f0000000000000000000000000000000000000000000000000000000000000000836115e4565b6040518181526001600160a01b0383169033907ff1444b5cad7ce70cb018d1b8edc8618fe303f3c7f034d8d572a6e27facbf2bef90602001610604565b61101d61148a565b61102760006118bb565b565b3360009081526002602052604081205460ff166110585760405162461bcd60e51b815260040161050e90611bcb565b6040516bffffffffffffffffffffffff1933606090811b8216602084015288811b8216603484015287901b1660488201526001600160e81b031960e886901b16605c820152605f810184905282151560f81b607f82015242608082015260a0016040516020818303038152906040528051906020012090506040518060e00160405280336001600160a01b03168152602001876001600160a01b03168152602001866001600160a01b031681526020018562ffffff1681526020018481526020018315158152602001600115158152506003600083815260200190815260200160002060008201518160000160006101000a8154816001600160a01b0302191690836001600160a01b0316021790555060208201518160010160006101000a8154816001600160a01b0302191690836001600160a01b0316021790555060408201518160020160006101000a8154816001600160a01b0302191690836001600160a01b0316021790555060608201518160020160146101000a81548162ffffff021916908362ffffff1602179055506080820151816003015560a08201518160040160006101000a81548160ff02191690831515021790555060c08201518160040160016101000a81548160ff021916908315150217905550905050600160026000336001600160a01b03166001600160a01b03168152602001908152602001600020600201600083815260200190815260200160002060006101000a81548160ff021916908315150217905550856001600160a01b0316336001600160a01b0316827f8129cee9cdf04b676bc3b281fe6208730d9ab42ca4b4945d8441395188298812888888886040516112f894939291906001600160a01b0394909416845262ffffff92909216602084015260408301521515606082015260800190565b60405180910390a495945050505050565b600081815260036020526040902080546001600160a01b031633148061134857503361133d6000546001600160a01b031690565b6001600160a01b0316145b6113855760405162461bcd60e51b815260206004820152600e60248201526d139bdd08185d5d1a1bdc9a5e995960921b604482015260640161050e565b6004810154610100900460ff166113d55760405162461bcd60e51b81526020600482015260146024820152735468726573686f6c64206e6f742061637469766560601b604482015260640161050e565b60048101805461ff0019169055546001600160a01b0316600090815260026020818152604080842094845293909101905220805460ff19169055565b61141961148a565b6001600160a01b03811661147e5760405162461bcd60e51b815260206004820152602660248201527f4f776e61626c653a206e6577206f776e657220697320746865207a65726f206160448201526564647265737360d01b606482015260840161050e565b611487816118bb565b50565b6000546001600160a01b031633146110275760405162461bcd60e51b815260206004820181905260248201527f4f776e61626c653a2063616c6c6572206973206e6f7420746865206f776e6572604482015260640161050e565b604080516001600160a01b038481166024830152604480830185905283518084039091018152606490920183526020820180516001600160e01b031663a9059cbb60e01b17905291516000928392908716916115409190611cfb565b6000604051808303816000865af19150503d806000811461157d576040519150601f19603f3d011682016040523d82523d6000602084013e611582565b606091505b50915091508180156115ac5750805115806115ac5750808060200190518101906115ac9190611d17565b6115dd5760405162461bcd60e51b815260206004820152600260248201526114d560f21b604482015260640161050e565b5050505050565b604080516001600160a01b038481166024830152604480830185905283518084039091018152606490920183526020820180516001600160e01b031663095ea7b360e01b17905291516000928392908716916116409190611cfb565b6000604051808303816000865af19150503d806000811461167d576040519150601f19603f3d011682016040523d82523d6000602084013e611682565b606091505b50915091508180156116ac5750805115806116ac5750808060200190518101906116ac9190611d17565b6115dd5760405162461bcd60e51b8152602060048201526002602482015261534160f01b604482015260640161050e565b600060148210156117265760405162461bcd60e51b8152602060048201526013602482015272092dcecc2d8d2c840e0c2e8d040d8cadccee8d606b1b604482015260640161050e565b611734601460008486611d34565b61173d91611d5e565b9392505050565b6000601482101561178d5760405162461bcd60e51b8152602060048201526013602482015272092dcecc2d8d2c840e0c2e8d040d8cadccee8d606b1b604482015260640161050e565b600061179a601484611c0e565b90506117a883828187611d34565b6117b191611d5e565b949350505050565b604080516001600160a01b0385811660248301528481166044830152606480830185905283518084039091018152608490920183526020820180516001600160e01b03166323b872dd60e01b179052915160009283929088169161181d9190611cfb565b6000604051808303816000865af19150503d806000811461185a576040519150601f19603f3d011682016040523d82523d6000602084013e61185f565b606091505b50915091508180156118895750805115806118895750808060200190518101906118899190611d17565b6104af5760405162461bcd60e51b815260206004820152600360248201526229aa2360e91b604482015260640161050e565b600080546001600160a01b038381166001600160a01b0319831681178455604051919092169283917f8be0079c531659141344cd1fd0a4f28419497f9722a3daafe3b4186f6b6457e09190a35050565b60008083601f84011261191d57600080fd5b50813567ffffffffffffffff81111561193557600080fd5b60208301915083602082850101111561194d57600080fd5b9250929050565b6000806020838503121561196757600080fd5b823567ffffffffffffffff81111561197e57600080fd5b61198a8582860161190b565b90969095509350505050565b80356001600160a01b03811681146119ad57600080fd5b919050565b600080604083850312156119c557600080fd5b6119ce83611996565b946020939093013593505050565b60008082840360e08112156119f057600080fd5b6119f984611996565b925060c0601f1982011215611a0d57600080fd5b506020830190509250929050565b60008060008060008060a08789031215611a3457600080fd5b611a3d87611996565b9550602087013567ffffffffffffffff811115611a5957600080fd5b611a6589828a0161190b565b979a90995096976040810135976060820135975060809091013595509350505050565b801515811461148757600080fd5b60008060408385031215611aa957600080fd5b611ab283611996565b91506020830135611ac281611a88565b809150509250929050565b60008060408385031215611ae057600080fd5b611ae983611996565b9150611af760208401611996565b90509250929050565b600060208284031215611b1257600080fd5b61173d82611996565b600060208284031215611b2d57600080fd5b5035919050565b803562ffffff811681146119ad57600080fd5b600080600080600060a08688031215611b5f57600080fd5b611b6886611996565b9450611b7660208701611996565b9350611b8460408701611b34565b9250606086013591506080860135611b9b81611a88565b809150509295509295909350565b60008060408385031215611bbc57600080fd5b50508035926020909101359150565b602080825260139082015272155cd95c881b9bdd081c9959da5cdd195c9959606a1b604082015260600190565b634e487b7160e01b600052601160045260246000fd5b81810381811115610abe57610abe611bf8565b600060208284031215611c3357600080fd5b61173d82611b34565b600060208284031215611c4e57600080fd5b5051919050565b80820180821115610abe57610abe611bf8565b60005b83811015611c83578181015183820152602001611c6b565b50506000910152565b602081526000825160a0602084015280518060c0850152611cb48160e0860160208501611c68565b60018060a01b0360208601511660408501526040850151606085015260608501516080850152608085015160a085015260e0601f19601f8301168501019250505092915050565b60008251611d0d818460208701611c68565b9190910192915050565b600060208284031215611d2957600080fd5b815161173d81611a88565b60008085851115611d4457600080fd5b83861115611d5157600080fd5b5050820193919092039150565b80356020831015610abe57600019602084900360031b1b169291505056fea2646970667358221220c97eaca6a1117c330ba54ed9606285f656fcdbe32520b59ccb887e253213b5aa64736f6c63430008110033",
  "linkReferences": {},
  "deployedLinkReferences": {}
}